:020000040800F2
:100000000000032005480008C1450008C34500085A
:10001000C5450008C7450008C945000800000000A4
:10002000000000000000000000000000013C00088B
:10003000CB45000800000000313C0008CD45000819
:10004000554800085548000855480008554800081C
:10005000554800085548000855480008554800080C
:1000600055480008554800085548000855480008FC
:1000700055480008554800085548000855480008EC
:1000800055480008554800085548000855480008DC
:10009000E54500085548000855480008554800083F
:1000A00055480008554800085548000855480008BC
:1000B00055480008554800085548000855480008AC
:1000C000554800085548000855480008554800089C
:1000D000554800085548000855480008554800088C
:1000E000554800085548000855480008554800087C
:1000F000554800085548000855480008554800086C
:10010000554800085548000855480008554800085B
:10011000554800085548000855480008554800084B
:100120005548000855480008F5450008554800089E
:10013000554800085548000855480008554800082B
:10014000054600085548000855480008554800086D
:10015000554800085548000815460008C92C0008F5
:1001600055480008554800085548000855480008FB
:100170005548000855480008554800080000000090
:1001800055480008554800085548000855480008DB
:1001900055480008554800085548000855480008CB
:0C01A000000000000000000055480008AE
:1001B00010B5054C237833B9044B13B10448AFF3A1
:1001C00000800123237010BD4804002000000000BF
:1001D0006051000808B5034B1BB103490348AFF356
:1001E000008008BD000000004C04002060510008A1
:1001F00081F0004102E000BF83F0004330B54FEAD8
:1002000041044FEA430594EA050F08BF90EA020F44
:100210001FBF54EA000C55EA020C7FEA645C7FEAD7
:10022000655C00F0E2804FEA5454D4EB5555B8BFFA
:100230006D420CDD2C4480EA020281EA030382EA6B
:10024000000083EA010180EA020281EA0303362DFD
:1002500088BF30BD11F0004F4FEA01314FF4801CD0
:100260004CEA113102D0404261EB410113F0004FE2
:100270004FEA03334CEA133302D0524263EB430399
:1002800094EA050F00F0A780A4F10104D5F1200E37
:100290000DDB02FA0EFC22FA05F2801841F1000192
:1002A00003FA0EF2801843FA05F359410EE0A5F166
:1002B00020050EF1200E012A03FA0EFC28BF4CF097
:1002C000020C43FA05F3C01851EBE37101F000454D
:1002D00007D54FF0000EDCF1000C7EEB00006EEB5A
:1002E0000101B1F5801F1BD3B1F5001F0CD34908E4
:1002F0005FEA30004FEA3C0C04F101044FEA44523B
:1003000012F5800F80F09A80BCF1004F08BF5FEAC1
:10031000500C50F1000041EB045141EA050130BDA1
:100320005FEA4C0C404141EB0101013C28BFB1F5B3
:10033000801FE9D291F0000F04BF01460020B1FAFE
:1003400081F308BF2033A3F10B03B3F120020CDAD1
:100350000C3208DD02F1140CC2F10C0201FA0CF0AF
:1003600021FA02F10CE002F11402D8BFC2F1200C14
:1003700001FA02F120FA0CFCDCBF41EA0C019040CA
:10038000E41AA2BF01EB0451294330BD6FEA040413
:100390001F3C1CDA0C340EDC04F11404C4F12002FE
:1003A00020FA04F001FA02F340EA030021FA04F310
:1003B00045EA030130BDC4F10C04C4F1200220FA67
:1003C00002F001FA04F340EA0300294630BD21FAA5
:1003D00004F0294630BD94F0000F83F4801306BF6B
:1003E00081F480110134013D4EE77FEA645C18BF5F
:1003F0007FEA655C29D094EA050F08BF90EA020FF6
:1004000005D054EA000C04BF1946104630BD91EAED
:10041000030F1EBF0021002030BD5FEA545C05D1F0
:100420004000494128BF41F0004130BD14F580042F
:100430003CBF01F5801130BD01F0004545F0FE41A3
:1004400041F470014FF0000030BD7FEA645C1ABFD8
:10045000194610467FEA655C1CBF0B46024650EA0F
:10046000013406BF52EA033591EA030F41F400213B
:1004700030BD00BF90F0000F04BF0021704730B5C1
:100480004FF4806404F132044FF000054FF0000196
:1004900050E700BF90F0000F04BF0021704730B557
:1004A0004FF4806404F1320410F0004548BF40422C
:1004B0004FF000013EE700BF42004FEAE2014FEA81
:1004C00031014FEA02701FBF12F07F4393F07F4F5C
:1004D00081F06051704732F07F4208BF704793F05F
:1004E0007F4F04BF41F40021704730B54FF4607472
:1004F00001F0004521F000411CE700BF50EA010275
:1005000008BF704730B54FF000050AE050EA01021D
:1005100008BF704730B511F0004502D5404261EB8D
:1005200041014FF4806404F132045FEA915C3FF4CE
:10053000D8AE4FF003025FEADC0C18BF03325FEA6B
:10054000DC0C18BF033202EBDC02C2F1200300FA1C
:1005500003FC20FA02F001FA03FE40EA0E0021FA41
:1005600002F11444BDE600BF70B54FF0FF0C4CF42F
:10057000E06C1CEA11541DBF1CEA135594EA0C0FE1
:1005800095EA0C0F00F0DEF82C4481EA030621EA1C
:100590004C5123EA4C5350EA013518BF52EA033557
:1005A00041F4801143F4801338D0A0FB02CE4FF009
:1005B0000005E1FB02E506F00042E0FB03E54FF039
:1005C0000006E1FB03569CF0000F18BF4EF0010E31
:1005D000A4F1FF04B6F5007F64F5407404D25FEA2D
:1005E0004E0E6D4146EB060642EAC62141EA5551E0
:1005F0004FEAC52040EA5E504FEACE2EB4F1FD0C22
:1006000088BFBCF5E06F1ED8BEF1004F08BF5FEA9F
:10061000500E50F1000041EB045170BD06F0004651
:1006200046EA010140EA020081EA0301B4EB5C04FE
:10063000C2BFD4EB0C0541EA045170BD41F48011F6
:100640004FF0000E013C00F3AB8014F1360FDEBF1B
:10065000002001F0004170BDC4F10004203C35DAF7
:100660000C341BDC04F11404C4F1200500FA05F37A
:1006700020FA04F001FA05F240EA020001F000421B
:1006800021F0004110EBD37021FA04F642EB060191
:100690005EEA430E08BF20EAD37070BDC4F10C04BB
:1006A000C4F1200500FA04F320FA05F001FA04F27F
:1006B00040EA020001F0004110EBD37041F100016B
:1006C0005EEA430E08BF20EAD37070BDC4F1200576
:1006D00000FA05F24EEA020E20FA04F301FA05F2DE
:1006E00043EA020321FA04F001F0004121FA04F286
:1006F00020EA020000EBD3705EEA430E08BF20EA56
:10070000D37070BD94F0000F0FD101F0004640008F
:1007100041EB010111F4801F08BF013CF7D041EA11
:10072000060195F0000F18BF704703F00046520015
:1007300043EB030313F4801F08BF013DF7D043EAE6
:100740000603704794EA0C0F0CEA135518BF95EA9C
:100750000C0F0CD050EA410618BF52EA4306D1D123
:1007600081EA030101F000414FF0000070BD50EA42
:10077000410606BF1046194652EA430619D094EACC
:100780000C0F02D150EA013613D195EA0C0F05D1B6
:1007900052EA03361CBF104619460AD181EA03010A
:1007A00001F0004141F0FE4141F470014FF00000C2
:1007B00070BD41F0FE4141F4780170BD70B54FF05D
:1007C000FF0C4CF4E06C1CEA11541DBF1CEA1355DD
:1007D00094EA0C0F95EA0C0F00F0A7F8A4EB0504BF
:1007E00081EA030E52EA03354FEA013100F08880B6
:1007F0004FEA03334FF0805545EA131343EA12637F
:100800004FEA022245EA111545EA10654FEA002633
:100810000EF000419D4208BF964244F1FD0404F5EC
:10082000407402D25B084FEA3202B61A65EB030548
:100830005B084FEA32024FF480104FF4002CB6EB05
:10084000020E75EB030E22BFB61A754640EA0C0085
:100850005B084FEA3202B6EB020E75EB030E22BFC5
:10086000B61A754640EA5C005B084FEA3202B6EB06
:10087000020E75EB030E22BFB61A754640EA9C00C5
:100880005B084FEA3202B6EB020E75EB030E22BF95
:10089000B61A754640EADC0055EA060E18D04FEA53
:1008A000051545EA16754FEA06164FEAC30343EAF3
:1008B00052734FEAC2025FEA1C1CC0D111F4801FC0
:1008C0000BD141EA00014FF000004FF0004CB6E7B9
:1008D00011F4801F04BF01430020B4F1FD0C88BF58
:1008E000BCF5E06F3FF6AFAEB5EB030C04BFB6EB63
:1008F000020C5FEA500C50F1000041EB045170BD56
:100900000EF0004E4EEA113114EB5C04C2BFD4EB82
:100910000C0541EA045170BD41F480114FF0000E06
:10092000013C90E645EA060E8DE60CEA135594EA82
:100930000C0F08BF95EA0C0F3FF43BAF94EA0C0F85
:100940000AD150EA01347FF434AF95EA0C0F7FF4FA
:1009500025AF104619462CE795EA0C0F06D152EA4E
:1009600003353FF4FDAE1046194622E750EA410632
:1009700018BF52EA43067FF4C5AE50EA41047FF443
:100980000DAF52EA43057FF4EBAE12E74A0011D2F5
:1009900012F5001211D20DD56FF47873B3EB6252D9
:1009A0000ED44FEAC12343F0004343EA505323FAE5
:1009B00002F070474FF00000704750EA013002D15A
:1009C0004FF0FF3070474FF0000070474FEA410290
:1009D000B2F1E04324BFB3F5001CDCF1FE5C0DD99D
:1009E00001F0004C4FEAC0024CEA5070B2F1004FE7
:1009F00040EB830008BF20F00100704711F0804FEA
:100A000021D113F13872BCBF01F00040704741F4AE
:100A100080114FEA5252C2F11802C2F1200C10FAB2
:100A20000CF320FA02F018BF40F001004FEAC12396
:100A30004FEAD32303FA0CFC40EA0C0023FA02F33A
:100A40004FEA4303CCE77FEA625307D150EA013310
:100A50001EBF4FF0FE4040F44000704701F00040E0
:100A600040F0FE4040F40000704700BF53B94AB95F
:100A7000002908BF00281CBF4FF0FF314FF0FF30A6
:100A800000F074B9ADF1080C6DE904CE00F006F881
:100A9000DDF804E0DDE9022304B070472DE9F047FA
:100AA000089D04468E46002B4DD18A42944669D952
:100AB000B2FA82F252B101FA02F3C2F1200120FA35
:100AC00001F10CFA02FC41EA030E94404FEA1C4883
:100AD000210CBEFBF8F61FFA8CF708FB16E341EA7F
:100AE000034306FB07F199420AD91CEB030306F105
:100AF000FF3080F01F81994240F21C81023E634426
:100B00005B1AA4B2B3FBF8F008FB103344EA0344C9
:100B100000FB07F7A7420AD91CEB040400F1FF33DE
:100B200080F00A81A74240F207816444023840EA1B
:100B30000640E41B00261DB1D4400023C5E9004354
:100B40003146BDE8F0878B4209D9002D00F0EF80D7
:100B50000026C5E9000130463146BDE8F087B3FA0A
:100B600083F6002E4AD18B4202D3824200F2F980F2
:100B7000841A61EB030301209E46002DE0D0C5E9F5
:100B8000004EDDE702B9FFDEB2FA82F2002A40F041
:100B90009280A1EB0C014FEA1C471FFA8CFE012644
:100BA000200CB1FBF7F307FB131140EA01410EFBE8
:100BB00003F0884208D91CEB010103F1FF3802D28F
:100BC000884200F2CB804346091AA4B2B1FBF7F089
:100BD00007FB101144EA01440EFB00FEA64508D9AC
:100BE0001CEB040400F1FF3102D2A64500F2BB80E9
:100BF0000846A4EB0E0440EA03409CE7C6F1200738
:100C0000B34022FA07FC4CEA030C20FA07F401FA7D
:100C100006F31C43F9404FEA1C4900FA06F3B1FB06
:100C2000F9F8200C1FFA8CFE09FB181140EA01416B
:100C300008FB0EF0884202FA06F20BD91CEB010108
:100C400008F1FF3A80F08880884240F28580A8F160
:100C500002086144091AA4B2B1FBF9F009FB1011B2
:100C600044EA014100FB0EFE8E4508D91CEB010150
:100C700000F1FF346CD28E456AD90238614440EAF3
:100C80000840A0FB0294A1EB0E01A142C846A64673
:100C900056D353D05DB1B3EB080261EB0E0101FAFC
:100CA00007F722FA06F3F1401F43C5E90071002659
:100CB0003146BDE8F087C2F12003D8400CFA02FCAF
:100CC00021FA03F3914001434FEA1C471FFA8CFEBF
:100CD000B3FBF7F007FB10360B0C43EA064300FBAF
:100CE0000EF69E4204FA02F408D91CEB030300F14D
:100CF000FF382FD29E422DD9023863449B1B89B204
:100D0000B3FBF7F607FB163341EA034106FB0EF38C
:100D10008B4208D91CEB010106F1FF3816D28B4239
:100D200014D9023E6144C91A46EA004638E72E4605
:100D3000284605E70646E3E61846F8E64B45A9D2FD
:100D4000B9EB020864EB0C0E0138A3E74646EAE76C
:100D5000204694E74046D1E7D0467BE7023B61441A
:100D600032E7304609E76444023842E7704700BF83
:100D7000844641EA000313F003036DD1403A41D3A6
:100D800051F8043B40F8043B51F8043B40F8043B65
:100D900051F8043B40F8043B51F8043B40F8043B55
:100DA00051F8043B40F8043B51F8043B40F8043B45
:100DB00051F8043B40F8043B51F8043B40F8043B35
:100DC00051F8043B40F8043B51F8043B40F8043B25
:100DD00051F8043B40F8043B51F8043B40F8043B15
:100DE00051F8043B40F8043B51F8043B40F8043B05
:100DF00051F8043B40F8043B51F8043B40F8043BF5
:100E0000403ABDD2303211D351F8043B40F8043B94
:100E100051F8043B40F8043B51F8043B40F8043BD4
:100E200051F8043B40F8043B103AEDD20C3205D3A4
:100E300051F8043B40F8043B043AF9D2043208D09C
:100E4000D2071CBF11F8013B00F8013B01D30B880E
:100E500003806046704700BF082A13D38B078DD0EC
:100E600010F003038AD0C3F10403D21ADB071CBFBE
:100E700011F8013B00F8013B80D331F8023B20F828
:100E8000023B7BE7043AD9D3013A11F8013B00F861
:100E9000013BF9D20B7803704B7843708B788370E9
:100EA000604670474FF0FF3C06E000BF4FF0010C7A
:100EB00002E000BF4FF0010C4DF804CD4FEA410CA9
:100EC0007FEA6C5C4FEA430C18BF7FEA6C5C1BD076
:100ED00001B050EA410C0CBF52EA430C91EA030FF7
:100EE00002BF90EA020F0020704710F1000F91EA54
:100EF000030F58BF994208BF90422CBFD8176FEA22
:100F0000E37040F0010070474FEA410C7FEA6C5CEF
:100F100002D150EA013C07D14FEA430C7FEA6C5CF6
:100F2000D6D152EA033CD3D05DF8040B704700BF22
:100F30008446104662468C461946634600E000BF70
:100F400001B5FFF7B7FF002848BF10F1000F01BD42
:100F50004DF808EDFFF7F4FF0CBF012000205DF80D
:100F600008FB00BF4DF808EDFFF7EAFF34BF012092
:100F700000205DF808FB00BF4DF808EDFFF7E0FF2B
:100F800094BF012000205DF808FB00BF4DF808ED7C
:100F9000FFF7CEFF94BF012000205DF808FB00BFE3
:100FA0004DF808EDFFF7C4FF34BF012000205DF8C5
:100FB00008FB00BF4FEA410C7FEA6C5C02D150EAAB
:100FC000013C0AD14FEA430C7FEA6C5C02D152EA41
:100FD000033C02D14FF0000070474FF00100704712
:100FE00010B504460E4B18784FF47A73B3FBF0F348
:100FF0000C4A1068B0FBF3F000F086FC68B90F2CC7
:1010000001D901200AE0002221464FF0FF3000F014
:1010100035FC054B1C60002000E0012010BD00BF26
:10102000000000200C0000200400002008B50B4B3D
:101030001A6842F400721A601A6842F480621A60F8
:101040001A6842F480721A60032000F005FC0F2039
:10105000FFF7C6FF03F092FA002008BD003C0240F3
:10106000034A1168034B1B780B441360704700BFA1
:101070006404002000000020014B1868704700BF86
:101080006404002038B50446FFF7F6FF0546B4F1C6
:10109000FF3F02D0044B1B781C44FFF7EDFF401BC1
:1010A000A042FAD338BD00BF00000020002800F0A5
:1010B000A18038B5044690F82030D3B12268136877
:1010C00043F001031360FFF7D7FF054623685A6812
:1010D00012F0010F10D1FFF7CFFF401B0A28F5D9FE
:1010E000636A43F400336362052384F820300120EF
:1010F00038BD02F01FFFE1E71A6822F002021A6011
:10110000FFF7BAFF054623685A6812F0020F0DD0A8
:10111000FFF7B2FF401B0A28F5D9636A43F4003396
:101120006362052384F820300120E1E7227E012A52
:101130003DD01A6822F080021A60637E012B3BD0FA
:101140002268136823F040031360A37E012B39D07B
:101150002268136823F020031360E37E012B37D04D
:101160002268136843F010031360237F012B35D0EE
:101170002268136823F008031360637F012B33D0C8
:101180002268136823F004031360A368E268134322
:1011900022691343626913436268013A2168134369
:1011A000CB6100206062012384F82030A0E71A6838
:1011B00042F080021A60C0E72268136843F04003DF
:1011C0001360C2E72268136843F020031360C4E78A
:1011D0002268136823F010031360C6E722681368BF
:1011E00043F008031360C8E72268136843F0040360
:1011F0001360CAE70120704790F82030013BDBB252
:10120000012B05D9436A43F48023436201207047D0
:1012100030B5464BD3F8002242F00102C3F8002259
:10122000D3F8002222F47C52C3F80022D3F8002223
:10123000486A42EA0022C3F800224A6902F01F020B
:10124000012000FA02F2D3F81C026FEA020C20EA35
:101250000200C3F81C02CB69C3B9344BD3F80C02AB
:101260000CEA0000C3F80C028C884869CD6844EA97
:101270000544483043F830408C68088840EA044010
:101280004C6904F1480E03EBCE035860CB69012B87
:101290001ED08B69002B33D12448D0F804320CEADD
:1012A0000303C0F804320B698BBB2048D0F814321A
:1012B0000CEA0303C0F814320B6A012B2ED01B4A30
:1012C000D2F8003223F00103C2F80032002030BD12
:1012D000164BD3F80C021043C3F80C028C884869F3
:1012E0000D6844EA0544483043F8304088894C6929
:1012F0008D6840EA0540483403EBC4035860C8E7F2
:101300000A48D0F804321343C0F80432CBE7074848
:10131000D0F814321343C0F81432CDE70349D1F8A2
:101320001C321A43C1F81C22C9E700BF0064004008
:1013300070B5044690F82050EDB2012D06D0436AF6
:1013400043F4002343620125284670BD022380F840
:1013500020300268136823F001031360FFF78CFE4E
:10136000064623685B6813F0010F0CD0FFF784FE7C
:10137000831B0A2BF5D9636A43F4003363620523A8
:1013800084F82030E0E700256562DDE730B590F8AD
:1013900020C00468A4680CF1FF3C5FFA8CFCBCF12F
:1013A000010F6BD814F0E05F62D0C4F3016CBCF1A4
:1013B000020F05D9436A43F400034362012062E04F
:1013C000012404FA0CF41C608B68002B3DD10D68DD
:1013D000CB68046843EA45550CF118031B01E5503E
:1013E00003680C690CF1180E03EB0E135C600B7DA7
:1013F000012B35D0D17993791B0443EA01635179EC
:1014000043EA012314790168234301EB0C11C1F86D
:101410008C31D17893781B0443EA0163517843EA15
:101420000123117802680B4302EB0C12C2F88831D9
:1014300002680CF1180C4FEA0C1C52F80C3043F007
:10144000010342F80C3000201DE04C6843EAC4035D
:10145000CC6823430CF11804240105682B51BFE725
:10146000036803EB0E13596841F480715960C1E7BA
:10147000436A43F400134362012004E0436A43F4E7
:1014800080234362012030BD90F820C00CF1FF3C66
:101490005FFA8CFCBCF1010F00F2958030B451B9B9
:1014A0000468E46814F0030F10D1436A43F4001396
:1014B0004362012077E00468246914F0030F05D12A
:1014C000436A43F40013436201206CE001F11B0402
:1014D000240105682C5904F004049460002C64D1A4
:1014E00001F11B04240105682C59640D1460046883
:1014F00001F11B0C4FEA0C1C54F80C4004F00204E0
:10150000D46004686444646804F00F0414610468DF
:1015100064446468C4F307249461046864446468A0
:10152000240C5461026802EB0112D2F8B8211A703F
:10153000026802EB0112D2F8B821C2F307225A70F6
:10154000026802EB0112D2F8B821C2F307429A7086
:10155000026802EB0112D2F8B821120EDA700268AA
:1015600002EB0112D2F8BC211A71026802EB0112DF
:10157000D2F8BC21C2F307225A71026802EB0112B1
:10158000D2F8BC21C2F307429A71026802EB011241
:10159000D2F8BC21120EDA7179B90268D36843F02F
:1015A0002003D360002030BC704701F11B042401EC
:1015B00005682C59E408546099E70268136943F000
:1015C00020031361EEE7436A43F480234362012062
:1015D000704790F82030013BDBB2012B05D9436AFC
:1015E00043F4802343620120704702685369194322
:1015F00051610020704770477047704770477047CF
:1016000070477047704770477047704770472DE9C3
:10161000F84F054603685C69D3F804809F68D3F8E7
:101620000CB0D3F810A0D3F8189014F001063BD0FA
:1016300017F0010616D001229A6017F0020F08D1A8
:1016400017F0040F0CD117F0080606D04FF480569F
:1016500008E0FFF7D0FF002604E0FFF7CFFF01E02E
:101660004FF4006617F4807F0DD02B684FF4807222
:101670009A6017F4007F40F0868017F4806F00F0C6
:10168000868046F4005617F4803F0DD02B684FF447
:1016900080329A6017F4003F40F0838017F4802F67
:1016A00000F0838046F4004614F0080F07D01BF0CA
:1016B000100F04D046F400762B681022DA6014F084
:1016C000040F02D01BF0080F79D114F0020F04D0E0
:1016D0002B68DB6813F0030F78D114F0400F07D0AC
:1016E0001AF0100F04D046F480662B6810221A619D
:1016F00014F0200F02D01AF0080F6BD114F0100F65
:1017000004D02B681B6913F0030F6AD114F4003F57
:1017100002D018F0100F68D114F4803F02D018F0F6
:10172000080F69D114F4004F7AD018F0040F74D068
:1017300014F4807F04D019F0010F01D046F00106A7
:1017400014F4007F04D019F0020F01D046F0020615
:1017500014F4806F04D019F0040F01D046F0040691
:1017600014F4006F59D019F0700956D0B9F1400F38
:1017700065D058D8B9F1200F5ED0B9F1300F42D101
:1017800046F0200644E02846FFF736FF7BE717F4D3
:10179000006F02D046F4804675E72846FFF72FFF1A
:1017A00071E72846FFF729FF7EE717F4002F02D0E4
:1017B00046F4803678E72846FFF722FF74E72B6867
:1017C0000822DA602846FFF71CFF7EE7284601F072
:1017D000B9FB82E72B6808221A612846FFF713FF3E
:1017E0008CE72846FFF70EFF90E72B6810225A601F
:1017F0002846FFF709FF8FE72B6808225A60284622
:10180000FFF703FF8EE7B9F1100F01D146F008068C
:101810002A68936923F0700393612B6804225A604D
:101820009EB9BDE8F88FB9F1500F0BD0B9F1600F38
:10183000EED146F48076EBE746F01006E8E746F096
:101840004006E5E746F08006E2E76B6A1E436E62FB
:101850002846FFF7DBFEE4E7074AD36823F4E0639A
:101860001B041B0C000200F4E060034343F0BF6361
:1018700043F40033D360704700ED00E000B5194B2E
:10188000DB68C3F30223C3F1070CBCF1040F28BFCC
:101890004FF0040C03F1040EBEF1060F18D9033B00
:1018A0004FF0FF3E0EFA0CFC21EA0C0199400EFAB3
:1018B00003F322EA0303194300280BDB0901C9B231
:1018C00000F1604000F5614080F800135DF804FB12
:1018D0000023E5E700F00F000901C9B2024B1954DB
:1018E000F4E700BF00ED00E014ED00E0002807DBA6
:1018F00000F01F02400901239340024A42F82030C1
:10190000704700BF00E100E00138B0F1807F0BD2EA
:101910004FF0E0235861054AF02182F8231000209F
:10192000986107221A6170470120704700ED00E0BE
:1019300010B40368D9B210390C4AA2FB0142120953
:101940000B4CA25CC2655F2909D923F47F7323F095
:10195000030304338365806D5DF8044B704723F403
:101960007F7323F003038365F5E700BFABAAAAAA40
:1019700078530008836A826992B9012B0AD0022B3E
:1019800002D00BB100207047C36A13F0807F28D1CA
:1019900000207047C36AB3F1C07F24D00020704795
:1019A000B2F5005F09D0022B25D9032B25D1C36ADC
:1019B00013F0807F23D100207047032B03D8DFE88A
:1019C00003F01404140A00207047C36A13F0807FE8
:1019D0000DD100207047C36AB3F1C07F09D0002049
:1019E0007047012070470120704701207047012097
:1019F0007047012070470120704700207047012088
:101A00007047000070B50446FFF736FB002C5BD032
:101A10000546022384F83530002384F834302268E8
:101A2000136823F00103136023681A6812F0010F92
:101A30000AD0FFF721FB431B052BF5D92023636553
:101A4000032084F8350070BD1A6820481040616892
:101A5000A2680A43E1680A4321690A4361690A43AB
:101A6000A1690A43E1690A43216A0A430243616AA0
:101A700004291ED01A602668756925F00705636A77
:101A80001D43042B07D1A36A1D43E36A1BB1204603
:101A9000FFF770FF90B975612046FFF749FFE26DCF
:101AA0003F239340836000206065012384F8353034
:101AB000C9E7E16A206B01430A43DBE74023636522
:101AC000012084F83500BEE70120BCE73F8010F01C
:101AD000F0B583B0044600230193724B1D68724B2E
:101AE000A3FB0535AD0A876D3E68C26D08239340A0
:101AF000334210D003681A6812F0040F0BD01A6832
:101B000022F004021A60C26D08239340BB60436D4B
:101B100043F001034365E26D01239340334209D052
:101B20002268526912F0800F04D0BB60636D43F0ED
:101B300002036365E26D04239340334209D02268B7
:101B4000126812F0020F04D0BB60636D43F004030F
:101B50006365E26D10239340334224D022681268FB
:101B600012F0080F1FD0BB6023681A6812F4802F90
:101B70000DD01B6813F4002F04D1236C9BB12046B9
:101B8000984710E0A36C73B1204698470BE01A68A1
:101B900012F4807F03D11A6822F008021A60236CC5
:101BA0000BB120469847E26D20239340334255D035
:101BB0002268126812F0100F50D0BB6094F83530D4
:101BC000DBB2052B0ED023681A6812F4802F33D0B5
:101BD0001B6813F4002F2AD1636C002B3ED02046E3
:101BE00098473BE02268136823F0160313602268CD
:101BF000536923F080035361236CA3B122681368F7
:101C000023F008031360E26D3F239340BB60012380
:101C100084F83530002384F83430236D002B3FD016
:101C2000204698473CE0A36C002BE7D1EBE7E36B41
:101C3000A3B12046984711E01A6812F4807F09D1B9
:101C40001A6822F010021A60012384F8353000234C
:101C500084F83430E36B0BB120469847636DFBB1D9
:101C6000636D13F0010F17D0052384F83530226817
:101C7000136823F001031360019B01330193AB420E
:101C800004D823681B6813F0010FF5D1012384F8F1
:101C90003530002384F83430E36C0BB1204698478C
:101CA00003B0F0BD0C000020B5814E1B00230F2BAC
:101CB00000F2F18070B582B061E085685E000324B7
:101CC000B44025EA0405CC68B4402C4384604568E0
:101CD00025EA02054C68C4F300129A402A43426088
:101CE0005BE0DC08083450F8246003F0070295003C
:101CF0000F22AA4026EA020E0A69AA4042EA0E0210
:101D000040F824205DE0092200E0002202FA0EF2F1
:101D10002A430234604D45F82420604A14686FEA73
:101D20000C0224EA0C054E6816F4803F01D04CEA00
:101D300004055A4C2560646802EA04054E6816F4EE
:101D4000003F01D04CEA0405544C6560A46802EAE7
:101D500004054E6816F4801F01D04CEA04054F4C70
:101D6000A560E46822404D6815F4001F01D04CEADC
:101D700004024A4CE26001330F2B00F28A800122F8
:101D80009A400C6804EA020C32EA0404F3D14C686D
:101D900004F00304013C012C8FD94A6802F00302CD
:101DA000032A09D0C4685D000322AA4024EA020481
:101DB0008A68AA402243C2604A6802F00302022AEB
:101DC0008FD004684FEA430E032202FA0EF224EA8F
:101DD00002044A6802F0030202FA0EF22243026091
:101DE0004A6812F4403FC6D0002201922C4A546C3B
:101DF00044F480445464526C02F480420192019A8B
:101E00009C08A51C244A52F8255003F003024FEA0F
:101E1000820E0F2202FA0EF225EA0205214A9042B2
:101E20003FF473AF02F58062904222D002F58062E7
:101E3000904220D002F5806290421ED002F580626E
:101E400090421CD002F5806290421AD002F5806266
:101E5000904218D002F58062904216D002F580625E
:101E6000904214D002F5806290423FF44CAF0A22B7
:101E70004CE701224AE7022248E7032246E7042210
:101E800044E7052242E7062240E707223EE7082210
:101E90003CE702B070BD704700380140003C014093
:101EA00000380240000002400AB181617047090415
:101EB00081617047002800F0E08170B582B004466F
:101EC000036813F0010F3BD09F4B9B6803F00C039A
:101ED000042B2CD09C4B9B6803F00C03082B21D0C7
:101EE0006368B3F5803F4FD0B3F5A02F52D0964B27
:101EF0001A6822F480321A601A6822F480221A606A
:101F00006368002B50D0FFF7B7F805468E4B1B686F
:101F100013F4003F14D1FFF7AFF8401B6428F5D944
:101F20000320B1E1884B5B6813F4800FD8D0864B57
:101F30001B6813F4003F03D06368002B00F09F81FF
:101F4000236813F0020F54D07F4B9B6813F00C0FE3
:101F50003ED07D4B9B6803F00C03082B33D0E36825
:101F6000002B68D0794B01221A60FFF785F80546EF
:101F7000754B1B6813F0020F54D1FFF77DF8401B1F
:101F80000228F5D903207FE16F4A136843F48033B8
:101F90001360B5E76C4B1A6842F480221A601A6825
:101FA00042F480321A60ABE7FFF766F80546664BED
:101FB0001B6813F4003FC3D0FFF75EF8401B642892
:101FC000F5D9032060E1604B5B6813F4800FC6D144
:101FD0005D4B1B6813F0020F03D0E368012B40F048
:101FE0005081594A136823F0F803216943EAC10379
:101FF0001360236813F0080F42D063696BB3534B2F
:102000000122C3F8802EFFF737F805464E4B5B6F71
:1020100013F0020F34D1FFF72FF8401B0228F5D937
:10202000032031E1484A136823F0F803216943EAA9
:10203000C1031360DDE7454B00221A60FFF71CF86F
:102040000546414B1B6813F0020FD2D0FFF714F87E
:10205000401B0228F5D9032016E13C4B0022C3F8AF
:10206000802EFFF709F80546374B5B6F13F0020F20
:1020700006D0FFF701F8401B0228F5D9032003E141
:10208000236813F0040F77D02F4B1B6C13F0805F85
:1020900033D1002301932C4B1A6C42F080521A6406
:1020A0001B6C03F080530193019B0125284B1B6897
:1020B00013F4807F23D0A368012B34D0052B38D0B4
:1020C000214B1A6F22F001021A671A6F22F00402E4
:1020D0001A67A368002B3DD0FEF7CEFF06461A4BC9
:1020E0001B6F13F0020F46D1FEF7C6FF801B41F2B3
:1020F00088339842F3D90320C6E00025D6E7144A76
:10210000136843F480731360FEF7B6FF0646104B66
:102110001B6813F4807FCED1FEF7AEFF801B022830
:10212000F5D90320B0E0084A136F43F001031367A9
:10213000CFE7054B1A6F42F004021A671A6F42F09C
:1021400001021A67C5E700BF00380240000047429D
:1021500000700040FEF790FF0646524B1B6F13F0D5
:10216000020F08D0FEF788FF801B41F288339842A7
:10217000F3D9032088E0EDB9A369002B00F0838038
:10218000484A926802F00C02082A51D0022B17D05C
:10219000454B00221A66FEF76FFF0446414B1B6851
:1021A00013F0007F42D0FEF767FF001B0228F5D92D
:1021B000032069E03B4A136C23F080531364DBE790
:1021C000394B00221A66FEF757FF0546354B1B6850
:1021D00013F0007F06D0FEF74FFF401B0228F5D911
:1021E000032051E0E369226A1343626A43EA8213DF
:1021F000A26A5208013A43EA0243E26A43EA0263EE
:10220000284A5360284B01221A66FEF735FF044620
:10221000244B1B6813F0007F06D1FEF72DFF001B37
:102220000228F5D903202FE000202DE000202BE02C
:10223000012B2BD01B4B5B6803F48001E2699142B8
:1022400026D103F03F02216A8A4223D1616A47F610
:10225000C0721A40B2EB811F1ED103F44031A26A52
:102260005208013AB1EB024F18D103F07063E26AF1
:10227000B3EB026F14D1002006E00120704701206B
:1022800002E0012000E0002002B070BD0120FBE769
:102290000120F9E70120F7E70120F5E70120F3E746
:1022A0000120F1E7003802400000474208B5254B05
:1022B0009B6803F00C03042B3FD0082B3FD1214B2C
:1022C0005A6802F03F025B6813F4800F12D01D4B76
:1022D0005968C1F388111C480023A1FB0001FEF7D7
:1022E000C5FB184B5B68C3F3014301335B00B0FBD4
:1022F000F3F025E0134B5968C1F3881C4FEA4C11E9
:10230000B1EB0C006EEB0E0E4FEA8E1343EA9063B6
:102310008101091A63EB0E03DB0043EA5173C90024
:1023200011EB0C0C43F10003990200234FEA8C20BF
:1023300041EA9C51FEF79AFBD3E7034800E00348CB
:1023400008BD00BF00380240001BB7000024F400A5
:10235000002800F09B8070B50D4604464F4B1B686B
:1023600003F00F038B4208D2CBB24C4A13701368B0
:1023700003F00F038B4240F08B80236813F0020FB1
:1023800017D013F0040F04D0454A936843F4E05388
:102390009360236813F0080F04D0414A936843F414
:1023A000604393603E4A936823F0F003A1680B43B7
:1023B0009360236813F0010F32D06368012B21D0A2
:1023C0009A1E012A25D9364A126812F0020F61D0EE
:1023D00033498A6822F0030213438B60FEF74CFEF8
:1023E00006462F4B9B6803F00C036268B3EB820F29
:1023F00016D0FEF741FE801B41F288339842F0D997
:10240000032042E0264A126812F4003FE0D1012086
:102410003BE0234A126812F0007FD9D1012034E05A
:102420001E4B1B6803F00F03AB4207D9EAB21B4BEC
:102430001A701B6803F00F03AB422DD1236813F011
:10244000040F06D0164A936823F4E053E1680B4367
:102450009360236813F0080F07D0114A936823F4A0
:102460006043216943EAC1039360FFF71FFF0C4BF0
:102470009B68C3F303130B4AD35CD8400A4B186024
:102480000A4B1868FEF7ACFD002070BD01207047B4
:102490000120FAE70120F8E70120F6E7003C0240BE
:1024A00000380240805300080C0000200400002087
:1024B000014B1868704700BF0C00002008B5FFF7FB
:1024C000F7FF044B9B68C3F38223034AD35CD840D5
:1024D00008BD00BF003802409053000808B5FFF760
:1024E000E7FF044B9B68C3F34233034AD35CD840F5
:1024F00008BD00BF003802409053000838B50446BC
:102500000268136923F44053C1680B431361836865
:102510000269134342691343C2691A430168CB68D5
:1025200023F4164323F00C031343CB600268536972
:1025300023F4407381690B4353610368314A93422A
:1025400006D002F58062934202D0FFF7B7FF01E0A8
:10255000FFF7C4FFE369B3F5004F29D0002103184A
:1025600049411B1841F10001C90041EA5371DB00E8
:10257000181863684FEA83024FEA937341F1000130
:10258000FEF774FA204DA5FB00325109642303FBCA
:1025900011031B013233A5FB03235B0903F0F00297
:1025A00002EB011203F00F03216813448B6038BD66
:1025B0000023021843EB0301121841F10001C90086
:1025C00041EA5271D200101841F10001626892187C
:1025D0005B41FEF74BFA0C4DA5FB00325109642319
:1025E00003FB1103DB003233A5FB03235B095A0015
:1025F00002F4F87202EB011203F00703216813449E
:102600008B60D4E7001001401F85EB512DE9F843A2
:1026100005460F4616469946DDF820802C6824684A
:1026200037EA04030CBF4FF0010C4FF0000CB44527
:102630002DD1B8F1FF3FF1D0B8F1000F05D0FEF772
:102640001BFDA0EB09004045E8D92A6802F10C0304
:1026500053E8003F23F4D0730C3242E800310029E4
:10266000F3D12A6802F1140353E8003F23F0010379
:10267000143242E800310029F3D1202385F83D309F
:1026800085F83E30002385F83C30032000E0002030
:10269000BDE8F88358B310B5044690F83D300BB34D
:1026A000242384F83D302268D36823F40053D36098
:1026B0002046FFF723FF2268136923F49043136138
:1026C0002268536923F02A0353612268D36843F4D4
:1026D0000053D36000202064202384F83D3084F828
:1026E0003E3010BD80F83C3001F0DEFFD8E701201D
:1026F0007047002830D010B5044690F83D3033B311
:10270000242384F83D302268D36823F40053D36037
:102710002046FFF7F3FE2268136923F49043136108
:102720002268536923F0220353612268536943F0FE
:10273000080353612268D36843F40053D360002038
:102740002064202384F83D3084F83E3010BD80F8AA
:102750003C3001F0A9FFD3E7012070472DE9F0419B
:1027600082B01E4690F83D30DBB2202B54D1044697
:102770000D469046002953D0002A53D090F83C30A3
:10278000012B51D0012380F83C3000230364212326
:1027900080F83D30FEF770FC0746A4F82480A4F8CA
:1027A0002680A368B3F5805F05D04FF000080023B2
:1027B00084F83C3012E0236913B14FF00008F6E7CB
:1027C000A8460025F3E738F8023B2268C3F3080364
:1027D0005360E28C92B2013A92B2E284E38C9BB2F3
:1027E00073B100963B46002280212046FFF70EFF82
:1027F000E0B9002DE7D015F8012B23685A60E8E70F
:1028000000963B46002240212046FFF7FFFE78B9A4
:10281000202384F83D3000E0022002B0BDE8F081C2
:102820000120FAE70120F8E70220F6E70320F4E7A9
:102830000320F2E790F83C30012B14D0012380F8FC
:102840003C30242380F83D300268D36823F00C0329
:1028500043F00803D360202380F83D30002380F844
:102860003C30184670470220704790F83C30012BEE
:1028700014D0012380F83C30242380F83D300268D6
:10288000D36823F00C0343F00403D360202380F8C3
:102890003D30002380F83C301846704702207047D6
:1028A000034B1A68536943F080035361704700BFBC
:1028B000680F002010B4344B1A68136823F001032A
:1028C000136003E01A6822F001021A602E4B1B68A5
:1028D0001A6812F0010FF5D12C4A9A6002F5A8325D
:1028E0005432934217D9583A4FF00064D460284AC2
:1028F000934226D9583A4FF08064D460D86059602A
:10290000244A11684A6942F080024A611A6842F01A
:1029100001021A602FE0204A934205D902F5527253
:102920004FF000649460E2E71C4A934204D9583A9D
:102930004FF00064D460DAE7194A4FF00064946005
:10294000D5E7154A934205D902F552724FF08064DB
:102950009460D3E7114A934204D9583A4FF0806407
:10296000D460CBE70E4A4FF080649460C6E71A68E3
:1029700042F001021A60044B1B681A6812F0010F42
:10298000F5D05DF8044B7047080F00200414014097
:1029900058640240680F0020B8600240586002404E
:1029A0000060024030B505468E464FF0000C4FF0F7
:1029B000FF3017E0104C84EA400006E05208013373
:1029C0001F2B0DD80028F5DB40000A42F6D080F01E
:1029D000986080F48E3080F4DB7080F00100EDE7C9
:1029E0000CF1010CF44505D255F82C1000234FF0E2
:1029F0000042E5E730BD00BFB71DC10438B504464D
:102A000000EB0013154D05EB430507212846FFF7A2
:102A1000C9FF134B1860002308E0124AD05C04EB96
:102A200004120E4901EB4202D0540133172BF4DD9E
:102A30001E2300200BE00A4A12F800C004EB041227
:102A4000064901EB420202F803C001330130212B99
:102A5000F1DD22212846FFF72DFF38BD8405002037
:102A600080050020FC050020034B19719870FE22A0
:102A70001A70EE225A707047FC05002010B52DED3B
:102A8000048B04460B46B1B3B0EE409AF0EE608A78
:102A9000B0EE418A05292ED00A21FFF7E5FF9FED10
:102AA0001A0A29EE000ABCEEC00A184B10EE102AD2
:102AB0009A81DFED170A68EEA00ADFED167A60EE64
:102AC000A70AFDEEE00A10EE902ADA819FED121AB5
:102AD00028EE011A21EE271ABDEEC11A83ED041A61
:102AE00000229A824FF44062DA822046FFF786FF86
:102AF000BDEC048B10BD19462046FFF7B5FF2046FC
:102B0000FFF77CFFF4E700BF00008043FC050020D6
:102B1000000000439A99114183F9224510B52DED2B
:102B2000028B0446B0EE408A0A21FFF79DFF0E4B50
:102B300000229A81DA819FED0D0A28EE008A9FED2E
:102B40000C0A28EE008ABDEEC88A83ED048A40F2A2
:102B500099129A824FF44062DA822046FFF74EFFC4
:102B6000BDEC028B10BD00BFFC05002083F922459F
:102B70009A99114110B4164B1B685C6944F04004EB
:102B80005C61DC6844F01004DC60124B1C68236854
:102B900023F00103236003E01C6824F001041C609F
:102BA0000C4B1B681C6814F0010FF5D10A4C9C609B
:102BB000D86019615A601A6842F480221A60054B85
:102BC0001A68136843F0010313605DF8044B704703
:102BD000680F0020A80E00200414014008B5034827
:102BE00063228118FFF7C6FF08BD00BF68040020FC
:102BF00010B5827804792E4B1C7090F806C083F8CB
:102C000001C0017B9970417BD970817B1971C17BB7
:102C10005971817E9971C17ED971817F1972C17F8D
:102C2000597290F82010997290F82110D97290F88A
:102C30002210197390F82310597390F82410997387
:102C400090F82510D9731B4902EB420E01EBCE0020
:102C500001F83E4080F801C05C8807EE904AF8EE2B
:102C6000677A9FED157A67EE877AC0ED017A9C88C6
:102C700007EE904AF8EE677ADFED106A87EEA67AE3
:102C800080ED027ADC888481D3ED027AF8EEE77A6F
:102C900077EEA77A9FED0A7A67EE877ADFED096A09
:102CA00087EEA67A80ED047ADB68436110BD00BF31
:102CB000EC050020380500200000803B9A999144E3
:102CC000DB0F49409A99114800B583B02E4B1B6821
:102CD0001A6812F0200F09D0002200921A680092A0
:102CE0005B680093009B03B05DF804FB274A126801
:102CF00012F0100FF7D0002201921A6801925B685F
:102D00000193019B224B1B681A6812F4002F1CD1FF
:102D10001A6822F001021A601D4802685368C3F164
:102D200063039BB21B490B8063215160116841F41E
:102D30000021116001680A6842F001020A604E2B0E
:102D4000D1D11548FFF754FFCDE71A6822F00102F0
:102D50001A600F4908684368C3F163030D4A138082
:102D6000632343600D48836A23F400238362096868
:102D70000B6843F001030B6013884E2BB3D1084856
:102D8000FFF736FFAFE700BF680F002000140140D7
:102D9000A80E0020200600206804002000600240E9
:102DA000CB04002030B58BB0002401940294082598
:102DB00007954FF4007503950594069404128DF859
:102DC00004408DF8050008128DF806008DF80710F4
:102DD00011128DF808108DF809201A128DF80A20AA
:102DE0008DF80B3009AB01AA03A90248FEF7CEFA11
:102DF0000BB030BD400E002000B58BB00023019316
:102E000002930822079240F2FF1203920593069361
:102E1000431E0AAA02EB43030A1203F8242C4000C3
:102E200000F127030DEB030000F8241C09AB01AAF5
:102E300003A90348FEF7AAFA0BB05DF804FB00BF34
:102E4000400E002010B58AB0082405940D9C019412
:102E50000024049403948DF81C0008128DF81D00C2
:102E60008DF81E1011128DF81F108DF820201A12E7
:102E70008DF821208DF822300C9B8DF8233009AB82
:102E800007AA01A90248FEF781FA0AB010BD00BFE7
:102E9000680E002000B58BB0002305930693012235
:102EA00007920093019302930393049308920E23D5
:102EB000099369460C48FEF79FF958B90A48FEF78E
:102EC00037FA50B902210848FEF783FB40B90BB02E
:102ED0005DF804FB01F018FAF0E701F015FAF1E7EC
:102EE00001F012FAF3E700BF400E002000B58BB0EE
:102EF0000E2205920023069301210791009301936E
:102F00000293039304930891099269460C48FEF7D3
:102F100073F958B90A48FEF70BFA50B9022108486C
:102F2000FEF757FB40B90BB05DF804FB01F0ECF97C
:102F3000F0E701F0E9F9F1E701F0E6F9F3E700BFA6
:102F4000680E002038B50446274B984207D0274B1F
:102F5000984235D002212046FEF73BFB38BD244D78
:102F6000244B2A460021FEF78FFA2B68DAB2042A96
:102F700012D820498A78120212B2C878DBB2024312
:102F80001D4820F813200A78120212B249780A4329
:102F90001A4921F81320DDE7043AD2B215498B789B
:102FA0001B021BB2C8780343154820F812300B7877
:102FB0001B021BB249780B43124921F81230C9E7B2
:102FC000114D124B2A460021FEF75EFA2A6840F2A4
:102FD00002339A4204D002212046FEF7FAFABDE7F6
:102FE00001F0CAF8B6E700BF400E0020680E0020CE
:102FF000340600202C060020740600205C06002009
:1030000068060020500600208006002024060020CC
:103010002DE9F04F2DED028B83B051EC100B8DEDAF
:10302000001B0FF29C2BDBE900AB9F4BC3E900AB0D
:10303000DFF8948290A3D3E90023C8E90023DFF8E6
:103040008C928FA3D3E90023C9E900238EA3D3E98F
:103050000023964CC4E90023FDF7CEF806460F4640
:10306000934CC4E9006752465B46DDE90001FDF779
:10307000C3F882468B468F4DC5E900AB32463B46CE
:1030800030463946FDF770FA06460F4652465B4613
:1030900050465946FDF768FA02460B463046394617
:1030A000FDF7ACF802460B4643EC182B78A3D3E9A6
:1030B0000023FDF7A1F806460F46B0EE480AF0EEF1
:1030C000680A01F0E9FC51EC100B73A3D3E900236B
:1030D000FDF74AFA02460B4630463946FDF76EFBCD
:1030E00041EC100B01F0A4FC8DED000BD4E900675E
:1030F00032463B4630463946FDF736FA82468B4625
:10310000D5E9000102460B46FDF72EFA02460B46B2
:1031100050465946FDF772F841EC100B01F0BCFC2B
:1031200053EC102B30463946FDF748FB41EC100BB1
:1031300001F07EFC53EC102BDDE90001FDF75CF89B
:10314000DFF88CA1CAE90001D4E9000102460B4670
:10315000FDF70AFA06460F46D5E9000102460B467E
:10316000FDF702FA02460B4630463946FDF746F8AF
:1031700041EC180BD8E9006732463B4630463946E9
:10318000FDF7F2F9CDE90001D9E9000102460B464D
:10319000FDF7EAF902460B46DDE90001FDF72CF8E0
:1031A00002460B4651EC180BFDF728F8CDE900015B
:1031B00032463B4630463946FDF720F88046894680
:1031C000B0EE480AF0EE680A01F066FC53EC102BF2
:1031D00040464946FDF7C8F902460B46DDE90001C5
:1031E000FDF7ECFA41EC100B01F022FC57EC106BF0
:1031F000D5E90089D4E9000102460B46FDF7B4F990
:1032000004460D4642464B4640464946FDF7ACF95A
:1032100002460B4620462946FCF7F0FF41EC100B16
:1032200001F03AFC53EC102B40464946FDF7C6FA34
:1032300041EC100B01F0FCFB53EC102B30463946EF
:10324000FCF7DAFF04460D461B4BC3E90045DAE9FB
:103250000023FCF7D3FF02460B4611A1D1E9000180
:10326000FCF7CAFF154BC3E9000103B0BDEC028BAC
:10327000BDE8F08FAFF300800000000000607040F8
:103280000000000000186F40000000E0A3F8694053
:1032900000000000706FBA400000000000187F407E
:1032A00000000060FB21F93FB8060020D006002096
:1032B000A0060020B0060020E8060020F00600204E
:1032C00000000080C2817F40C0060020C8060020A8
:1032D000F8060020000000002DE9F84F2DED028BCC
:1032E0003F4BD3ED007A30EE670A9FED3E7AC0EE99
:1032F000076A16EE90BA3C4B93ED008A70EEC80A4E
:1033000080EE877A17EE10AA17EE900AFDF7D4F830
:1033100006460F4618EE100AFDF7CEF804460D4695
:103320004FF0010850E05846FDF7C6F802460B463C
:1033300030463946FCF762FF06460F465046FDF719
:10334000BBF802460B4620462946FCF757FF0446C9
:103350000D4645EC114B47EC106BFFF759FEDFF8BB
:103360009890D9F80000FDF7A7F8204BD3E9002387
:10337000FCF744FFFDF72AFB00EE100A0020FFF7E0
:10338000CDFB0520FDF77EFED9F80400FDF794F88B
:10339000174BD3E90023FCF731FFFDF717FB00EED5
:1033A000100A0120FFF7BAFB0BA3D3E90023114950
:1033B000D1E90001FDF7D8F8FDF7E8FA0146012050
:1033C00000F0F5FB08F10108B8F1640FABDDBDECCE
:1033D000028BBDE8F88F00BF00000000DCA54C4068
:1033E000D80600200000C842DC060020E8060020C5
:1033F000F0060020F8060020140600200C4AC0EB5E
:10340000C00302EBC3030B4919600B4959604FF02D
:103410007C51996047F23051D96242F210711963C0
:103420000A21996218464FF4FA534363704700BF6C
:1034300018080020000090410000F0410B4AC0EB4A
:10344000C00302EBC3030A4919600021596009490E
:10345000996047F23051D96242F210711963142118
:10346000996218464FF4FA534363704700070020EF
:103470003333333F9A99193FC0EBC003414A02EB03
:10348000C302D2ED017A136A07EE103AB8EEC77A9A
:1034900067EE877AD2ED046A77EEA67AC2ED047AF7
:1034A000126B06EE902AF8EEE66AF4EEE67AF1EE9A
:1034B00010FA43DDC0EBC002324901EBC202C2ED9B
:1034C000046AC0EBC0022F4901EBC202D2ED007AC0
:1034D00027EE277A82ED037AD2ED026A516A5B1AEF
:1034E00007EE903AF8EEE77A67EEA67AC2ED057A33
:1034F000D2ED046A37EE267A77EE877AC2ED067A45
:10350000D36A07EE103AB8EEC77AF4EEC77AF1EE56
:1035100010FA25DDC0EBC0031A4A02EBC30383EDAA
:10352000067AC0EBC000174B03EBC000D0ED067A63
:10353000FDEEE77A17EE903A18B27047524206EE67
:10354000902AF8EEE66AF4EEE67AF1EE10FAB8D5D3
:10355000C0EBC0020B4901EBC202C2ED046AB0E746
:103560005B4207EE103AB8EEC77AF4EEC77AF1EE96
:1035700010FAD6D5C0EBC003024A02EBC30383EDB9
:10358000067ACEE71808002010B50446C0EBC00349
:10359000164A02EBC302136A5362154B33F910301B
:1035A00007EE903AF8EEE77A30EE670AFDEEC07A61
:1035B00017EE903AC2ED087A926A934207DB2046F2
:1035C000FFF75AFF01462046FFF716FC10BDC0EB7F
:1035D000C003064A02EBC303D3ED067AFDEEE77A99
:1035E00017EE903A19B2FFF707FCE8E71808002039
:1035F0006806002038B5012407E0E5B22846FFF749
:10360000FDFE2846FFF71AFF0134042CF5DD38BD16
:10361000C0EBC003414A02EBC302D2ED017A136A48
:1036200007EE103AB8EEC77A67EE877AD2ED046AF1
:1036300077EEA67AC2ED047A126B06EE902AF8EEC7
:10364000E66AF4EEE67AF1EE10FA43DDC0EBC00272
:10365000324901EBC202C2ED046AC0EBC0022F493D
:1036600001EBC202D2ED007A27EE277A82ED037ACF
:10367000D2ED026A516A5B1A07EE903AF8EEE77AE9
:1036800067EEA67AC2ED057AD2ED046A37EE267AA5
:1036900077EE877AC2ED067AD36A07EE103AB8EE73
:1036A000C77AF4EEC77AF1EE10FA25DDC0EBC0035D
:1036B0001A4A02EBC30383ED067AC0EBC000174B36
:1036C00003EBC000D0ED067AFDEEE77A17EE903AF4
:1036D00018B27047524206EE902AF8EEE66AF4EE0F
:1036E000E67AF1EE10FAB8D5C0EBC0020B4901EB57
:1036F000C202C2ED046AB0E75B4207EE103AB8EED0
:10370000C77AF4EEC77AF1EE10FAD6D5C0EBC00353
:10371000024A02EBC30383ED067ACEE700070020DE
:10372000F0B583B00446144EC0EBC00506EBC505EA
:103730002B6A6B62114B33F9103007EE903AF8EEBA
:10374000E77A30EE670ABDEEC00A85ED080AFFF79A
:103750005FFF01902B6A002BB8BF5B42AA6A9342BD
:1037600001DA00230193DDED017AB8EEE70A204685
:10377000FFF70AFF03B0F0BD00070020500600204D
:103780000B4AC0EBC00302EBC3030A4919600A49A4
:1037900059600A4999604FF48041D96242F2107130
:1037A00019630A21996218464FF4FA53436370472C
:1037B000FC0A0020CDCCCC3FB81E053F9A99193F9A
:1037C0000B4AC0EBC00302EBC3030A491960002196
:1037D0005960094999604FF47A71D96242F21071C7
:1037E0001963C821996218464FF4FA53436370472E
:1037F0003C090020CDCCCC3DCDCC4C3FC0EBC00330
:10380000414A02EBC302D2ED017A136A07EE103A85
:10381000B8EEC77A67EE877AD2ED046A77EEA67AB9
:10382000C2ED047A126B06EE902AF8EEE66AF4EE28
:10383000E67AF1EE10FA43DDC0EBC002324901EB4B
:10384000C202C2ED046AC0EBC0022F4901EBC20202
:10385000D2ED007A27EE277A82ED037AD2ED026A62
:10386000516A5B1A07EE903AF8EEE77A67EEA67AAD
:10387000C2ED057AD2ED046A37EE267A77EE877AC2
:10388000C2ED067AD36A07EE103AB8EEC77AF4EEC4
:10389000C77AF1EE10FA25DDC0EBC0031A4A02EB3D
:1038A000C30383ED067AC0EBC000174B03EBC000E7
:1038B000D0ED067AFDEEE77A17EE903A18B270472F
:1038C000524206EE902AF8EEE66AF4EEE67AF1EE5F
:1038D00010FAB8D5C0EBC0020B4901EBC202C2ED31
:1038E000046AB0E75B4207EE103AB8EEC77AF4EE2E
:1038F000C77AF1EE10FAD6D5C0EBC003024A02EB4C
:10390000C30383ED067ACEE7FC0A002010B5044617
:10391000C0EBC003174A02EBC302136A5362164B93
:1039200033F9103007EE903AF8EEE77A70EE677AE6
:10393000FDEEE77A17EE903AC2ED087A002BB8BF99
:103940005B42926A93420EDAC0EBC002094B03EB72
:10395000C203D3ED067AFDEEE77A084B17EE902A04
:1039600023F8102010BDFFF749FF044B23F8140083
:10397000F8E700BFFC0A0020740600203009002090
:1039800008B50120FFF7FCFE0120FFF719FFFFF744
:1039900081FA08BD70B5ADF5007D05460C461646AA
:1039A0004FF400720C496846FDF7E2F900230CE081
:1039B000214611F8012B82EA15223DF9120080EA16
:1039C000052085B201339BB20C46B342F0D32846A2
:1039D0000DF5007D70BD00BF7851000870B5B2B024
:1039E000374D6C79AB7944EA032400260096C42253
:1039F000314601A800F05AFF95E803000090ADF8A9
:103A00000410090C8DF806102546072231460AE0FD
:103A10002C4B04221A6032B070BD2A4B04221A606B
:103A2000F9E701310246A31E8B4222DDC92AEFD0FD
:103A3000CB1D501C224EF35C02F1C8060DEB060CA8
:103A40000CF8C83CFD2BECD18B1D1D4EF35CFF2BFD
:103A5000E7D14B1DF35CFF2BE3D1C928DDD000F18A
:103A6000C8030DEB0300FD2300F8C83C0135901C92
:103A7000D7E7C92A1BD0631D511C1148C05C02F155
:103A8000C8036B4403F8C80CC82A14D006340C4E83
:103A9000335DC831694401F8C83C0232694630469A
:103AA000FDF766F97571C5F30725B571B3E7054BE9
:103AB00004221A60AFE7034B04221A60ABE700BF91
:103AC000BC0C002008000020F8B5FFF787FF144C5D
:103AD0006579A27945EA0225FF2323706370FD23EF
:103AE000A3700026E6706F1DBAB221463046FFF77C
:103AF00051FFE055AB1DC0F30720E054094F384695
:103B0000FEF798FEEA1D084B92B221463846FEF7B2
:103B100025FE3846FEF7A9FE044B1E60F8BD00BF27
:103B2000BC0C0020AC0F0020FFFF070008000020A5
:103B3000064B187106205871002098710320D87127
:103B40001972C1F3072159729A727047BC0C002098
:103B50000A4B187109205871002098710320D87100
:103B60001972C1F3072159729A72C2F30721D972EF
:103B7000C2F307411973120E5A737047BC0C002030
:103B800038B505460C460A464121FFF7D1FFFFF73D
:103B90009BFF1E20FDF776FA224640212846FFF7BC
:103BA000C7FFFFF791FF1E20FDF76CFA38BD08B57F
:103BB0000A467421FFF7CCFFFFF786FF1E20FDF7B2
:103BC00061FA08BD43684B609A688A6051609960E9
:103BD00008610368013303607047036941688268C4
:103BE0008A60416851605A68824206D000220261B0
:103BF0001A68013A1A601868704782685A60F5E7D7
:103C0000074B19680868B0E8F04F80F30988BFF3E4
:103C10006F8F4FF0000080F311887047AFF3008082
:103C2000840D0020000000000000000000000000E3
:103C3000EFF30980BFF36F8F154B1A681EF0100F5A
:103C400008BF20ED108A20E9F04F10602DE909002F
:103C50004FF0500080F31188BFF34F8FBFF36F8F89
:103C600000F0D0F84FF0000080F3118809BC19680B
:103C70000868B0E8F04F1EF0100F08BFB0EC108AD3
:103C800080F30988BFF36F8F704700BFAFF30080E8
:103C9000840D002008B54FF0500383F31188BFF363
:103CA0006F8FBFF34F8F00F021F828B14FF0E02362
:103CB0004FF08052C3F8042D002383F3118808BD10
:103CC000084B1B681B6823B9074B4FF0FF321A6083
:103CD0007047044B1B68DB68DB685A68024B1A604C
:103CE000704700BF880D0020240E0020F8B53A4B25
:103CF0001B68002B69D1394B1D6801351D60C5B9A2
:103D0000374B1B681B6843B14FF0500383F3118896
:103D1000BFF36F8FBFF34F8FFEE7314A1168314B0E
:103D2000186810601960304A136801331360FFF798
:103D3000C7FF2E4B1B68AB423DD900272C4B1B689D
:103D4000DB6A03EB83039A002A4B9B58012B00D9B3
:103D50000127294B1B68002B3CD001273AE00127A3
:103D60001F4B1B681B6843B31D4B1B68DB68DC687B
:103D700063689D4226D3261D3046FFF72EFFA36AB7
:103D80001BB104F11800FFF728FFE36A01229A40F3
:103D90001A49086802430A6003EB83039A0031461C
:103DA00014481044FFF70EFFE26A114B1B68DB6AF0
:103DB0009A42D4D2D4E70027D2E70C4B4FF0FF321F
:103DC0001A60BBE7094A1360B8E70D4A136801336C
:103DD000136000273846F8BD1C0E0020340E00206A
:103DE000880D00208C0D0020280E0020240E0020BD
:103DF000840D0020900D0020380E0020200E0020A1
:103E00002C0E0020204B1B681BB1204B01221A6096
:103E100070471E4B00221A601D4B1B68B3FA83F3D8
:103E2000DBB2C3F11F0303EB83018A0019498A58EF
:103E300042B94FF0500383F31188BFF36F8FBFF384
:103E40004F8FFEE7134903EB830082000A4450685A
:103E50004068506003EB830C4FEA8C020832114437
:103E6000884209D003EB83039A000A4B13445B6832
:103E7000DA68094B1A607047406862469100054A4B
:103E80000A445060EEE700BF1C0E0020380E0020F0
:103E9000200E0020900D0020840D0020054B1B6893
:103EA00033B1054B1B680BB10020704702207047EF
:103EB00001207047300E00201C0E002008B50C4871
:103EC0000C4B03600923436000238360C3604FF4FD
:103ED000803202614361037643768376C37603774B
:103EE0004377FDF7E3F800B908BD00F00DFAFBE7F2
:103EF000400E00200064004008B50C480C4B0360E5
:103F00000923436000238360C3604FF48032026161
:103F10004361037643768376C37603774377FDF771
:103F2000C5F800B908BD00F0EFF9FBE7680E002006
:103F30000068004010B58AB00023059306930793EC
:103F40000893099303683E4A934204D03D4A934242
:103F500034D00AB010BD3C4A136801331360012B02
:103F60001FD000240194394B1A6B42F008021A63E7
:103F70001B6B03F008030193019B032305930222AB
:103F8000069208930923099305A93148FDF78EFE8F
:103F9000224605211420FDF771FC1420FDF7A6FC34
:103FA000D7E700230093294B1A6C42F000721A6481
:103FB0001B6C03F000730093009BD2E70023029375
:103FC000224B1A6C42F080621A641B6C03F080630F
:103FD0000293029B1C4A136801331360012B21D00A
:103FE00000240494194B1A6B42F002021A631B6BF3
:103FF00003F002030493049B4FF440530593022300
:104000000693032308930923099305A91148FDF793
:104010004DFE224605214020FDF730FC4020FDF7F3
:1040200065FC96E700230393084B1A6C42F000727C
:104030001A641B6C03F000730393039BD0E700BF6B
:1040400000640040006800403C0E00200038024040
:10405000000C02400004024010B582B0002401941C
:104060000D4B1A6B42F480021A631B6B03F480033E
:104070000193019B224605213A20FDF7FFFB3A20E0
:10408000FDF734FC224605214620FDF7F7FB4620CC
:10409000FDF72CFC02B010BD00380240F0B58DB029
:1040A00000240794089409940A940B9401942F4BCC
:1040B0001A6B42F010021A631A6B02F0100201929E
:1040C000019A02941A6B42F040021A631A6B02F0D2
:1040D00040020292029A03941A6B42F001021A63A0
:1040E0001A6B02F001020392039A04941A6B42F0D5
:1040F00008021A631A6B02F008020492049A0594EB
:104100001A6B42F080021A631A6B02F08002059269
:10411000059A06941A6B42F002021A631B6B03F0B5
:1041200002030693069B124F224610213846FDF7E4
:10413000BBFE104D22464FF480712846FDF7B4FEB9
:10414000102307930126089609940A9407A9384674
:10415000FDF7ACFD4FF480730793089609940A9419
:1041600007A92846FDF7A2FD0DB0F0BD00380240BA
:10417000001C024000180240F8B52DED028B524B96
:104180001B784D2B0DD0532B3FD0542B46D0432BB7
:104190005AD0412B5CD0522B34D14C4B01221A60A7
:1041A00030E0494C6378A67846EA032636B2E378D5
:1041B000257945EA03252DB26379A07940EA0320E9
:1041C00000B2FCF767F9424BC3E90001E279414BC9
:1041D0001A60414B01221A603046FCF75BF900225D
:1041E0003E4BFCF7EBFA06460F462846FCF752F921
:1041F00000223A4BFCF7E2FA394BC3E90067394B2E
:10420000C3E90001BDEC028BF8BD2F4A51789378C9
:1042100043EA01231BB22F4A1360F3E72A4A51787D
:10422000937843EA01231BB200EE103AB8EEC00ABD
:104230000120FFF76BFB00231A4619462A48B0F904
:104240000200FEF7AFFDDDE7284B01221A60D9E737
:104250001D4A5178937843EA01231BB207EE903A46
:10426000D178137943EA01231CB25379957945EA51
:1042700003252DB2F8EEE77ADFED1D8A87EEA87AE6
:104280009FED1C8A67EE087A17EE900AFCF714F986
:10429000194BC3E9000107EE904AF8EEE77A87EE82
:1042A000A87A67EE087A17EE900AFCF705F9134B27
:1042B000C3E900010120124B1860124B1860294617
:1042C000FFF775FC9EE700BF24060020900E00203B
:1042D000A8060020E4060020E006002000408F40F1
:1042E000980E0020A00E002030090020940E00201F
:1042F00000003443DB0F4940E8060020F0060020B0
:10430000300500203405002072B6FEE700B595B0F8
:104310003022002108A800F0C9FA00230393049377
:104320000593069307930193204A116C41F0805145
:104330001164126C02F080520192019A02931C4B9C
:104340001A6842F440421A601B6803F44043029327
:10435000029B012308934FF48033099302230E93A9
:104360004FF480020F920622109290221192129323
:104370000423139308A8FDF79DFD98B90F23039319
:1043800002230493002305934FF4A05306934FF4A4
:1043900080530793042103A8FDF7DAFF20B915B075
:1043A0005DF804FBFFF7B0FFFFF7AEFF00380240F7
:1043B0000070004030B52DED028B83B0FCF736FE67
:1043C000FFF7A4FFFFF76AFEFFF746FEFFF776FD53
:1043D000FFF792FD00F04AF900F02EF9FEF760FABF
:1043E000FEF7FCFBFEF782FDFFF7CAFAFFF702F9C2
:1043F00001224FF480715548FDF756FD544B0022C1
:104400001A600CE040F201330193002100910B4649
:104410000A465020FEF716FD0A20FCF733FE4C4BEF
:104420001B68002BEED001210846FFF7A9FB02E034
:104430000A20FCF727FE474B1B68002BF8D06420AE
:10444000FCF720FE01241CE09FED438AB0EE481AE1
:10445000F0EE480AB0EE480A00210846FEF70EFBCF
:104460000A20FCF70FFEB0EE481AF0EE480AB0EE54
:10447000480A00210120FEF701FB0A20FCF702FE9A
:1044800001340A2CE0DD354A1169354B1960926A16
:104490005A60012411E0324D95ED000A0020FEF72C
:1044A0003DFB0A20FCF7EEFD95ED010A0120FEF729
:1044B00035FB0A20FCF7E6FD01340A2CEBDD4FF456
:1044C0007A70FCF7DFFD00224FF480711F48FDF782
:1044D000EBFC2CE0234BD3E90001FCF777FA08EE64
:1044E000100A214BD3E90001FCF770FAF0EE480AFC
:1044F00000EE100AFEF7F0FE1C4B00221A6040F29C
:1045000001330193012100910B460A464320FEF737
:1045100099FC10E0012210211548FDF7C5FC9FED24
:10452000150A0320FFF7FCF80A20FCF7ABFD0F4B40
:104530001B68002BCED1104B1B68002BEAD1002248
:1045400010210B48FDF7B0FCE9E700BF001802405E
:10455000900E0020940E002000000000380500207E
:1045600014060020A00E0020980E0020E006002077
:10457000001C024000004944E406002000B583B05E
:10458000002200920D4B596C41F480415964596CE2
:1045900001F48041009100990192196C41F0805121
:1045A00019641B6C03F080530193019B0F216FF082
:1045B0000100FDF763F903B05DF804FB0038024029
:1045C000FEE7FEE7FEE7FEE7FEE7704708B5FCF70B
:1045D00047FDFFF763FC012800D108BDFFF75AFB38
:1045E000FBE7000008B50248FDF711F808BD00BF61
:1045F000400E002008B50248FDF76AFA08BD00BF6A
:10460000A80E002008B50248FDF701F808BD00BF5C
:10461000680E002008B50248FDF75AFA08BD00BF31
:10462000080F0020034AD2F8883043F47003C2F820
:104630008830704700ED00E008B50A480A4B036077
:104640004FF46143436000238360C36003610C2225
:1046500042618361C361FEF74CF800B908BDFFF702
:1046600053FEFBE7AC0F0020007C004008B50B4870
:104670000B4B03600B4B436000238360C3600361FB
:104680000C22426183614FF40043C361FEF702F8DC
:1046900000B908BDFFF738FEFBE700BF680F002038
:1046A00000140140003E490030B58BB00023059353
:1046B00006930793089309930368494A934205D0E8
:1046C0000446484A934224D00BB030BD00210191EA
:1046D000454B1A6C42F000421A641A6C02F0004218
:1046E0000192019A02911A6B42F010021A631B6B3D
:1046F00003F010030293029B0223059312230693F7
:10470000032308930823099305A93848FDF7CEFA37
:10471000DAE700250395344B5A6C42F020025A64C4
:104720005A6C02F020020392039A04951A6B42F02D
:1047300040021A631B6B03F040030493049B4FF485
:1047400084430593022306930323089308230993C4
:1047500005A92748FDF7AAFA2648274B03604FF022
:104760002063436040238360C5604FF4806303612E
:1047700045618561C5614FF4403303624562FDF7D1
:1047800041F930BB1B4B63639C631C481C4B0360AB
:104790004FF02063436000238360C3604FF4806266
:1047A0000261436183614FF48072C2614FF4403211
:1047B00002624362FDF726F970B9104BA3639C6354
:1047C000002205214720FDF759F84720FDF78EF814
:1047D0007AE7FFF799FDD5E7FFF796FDEDE700BF14
:1047E000007C0040001401400038024000100240EC
:1047F00000180240080F0020B8640240A80E0020F4
:1048000040640240DFF834D00D480E490E4A0023C0
:1048100002E0D458C4500433C4188C42F9D30B4A74
:104820000B4C002301E013600432A242FBD3FFF7DC
:10483000F9FE00F017F8FFF7BDFD704700000320F8
:104840000000002044040020B45300084804002065
:10485000F40F0020FEE70000014B1868704700BF0E
:104860001000002070B50D4E0D4D761BB61006D011
:10487000002455F8043B01349847A642F9D1094E6B
:10488000094D761B00F06CFCB61006D0002455F8DC
:10489000043B01349847A642F9D170BDA8530008E3
:1048A000A8530008B0530008A8530008830730B588
:1048B00048D0541E002A3FD0CAB2034601E0013C52
:1048C0003AD303F8012B9D07F9D1032C2DD9CDB292
:1048D00045EA05250F2C45EA054536D9A4F1100215
:1048E00022F00F0C03F1200EE6444FEA121C03F1F4
:1048F000100242E9045542E9025510327245F8D1DE
:104900000CF1010214F00C0F03EB021204F00F0C77
:1049100013D0ACF1040323F003030433134442F82F
:10492000045B9342FBD10CF003042CB1CAB21C44CB
:1049300003F8012B9C42FBD130BD64461346002C8A
:10494000F4D1F9E703461446BFE71A46A446E0E768
:10495000024B13B1024800F005B870470000000098
:1049600071490008002301461A46184600F01AB89B
:1049700038B5084B084D5B1B9C1007D0043B1D4409
:10498000013C55F804399847002CF9D1BDE838406E
:1049900000F0ECBBB4530008B0530008704700BFF0
:1049A000704700BF2DE9F047DFF880A00646DAF82F
:1049B000000098460F469146FFF7F0FF1A4B1B6820
:1049C000D3F8484124B365681F2D26DC5EB96B1C03
:1049D0000235DAF80000636044F82570FFF7E0FF65
:1049E0000020BDE8F08704EB85010123C1F8889021
:1049F000D4F88821AB401A43022EC4F88821C1F8AC
:104A00000881E4D1D4F88C211343C4F88C31DEE75B
:104A100003F5A674C3F84841D5E7DAF80000FFF7BC
:104A2000BFFF4FF0FF30DCE7985300084004002040
:104A300038B52DED028B55EC104B00F061F8224695
:104A40002B4620462946B0EE408AF0EE608AFCF7FD
:104A5000B1FA50B945EC104B00F070FB0C4B51EC27
:104A6000100B0022FCF79CFA30B9B0EE480AF0EEC9
:104A7000680ABDEC028B38BDFFF7EEFEBDEC028B81
:104A8000034621221A600348BDE8384000F060BBAD
:104A90000000F03F9C53000838B52DED028B55EC1B
:104AA000104B00F07FFA22462B4620462946B0EEF6
:104AB000408AF0EE608AFCF77DFA30B900220023CC
:104AC00020462946FCF74EFA30B9B0EE480AF0EE1F
:104AD000680ABDEC028B38BDFFF7BEFE0022002342
:104AE0002121016010461946FBF768FE41EC180BC6
:104AF000B0EE480AF0EE680ABDEC028B38BD00BF8C
:104B00002DE9F84F55EC104BCF4B25F000479F4255
:104B10002DED048B37DD10EE103A07F1404707F515
:104B200080173B4310D010EE102A2B462046294612
:104B3000FBF762FB02460B46FBF740FE41EC100B15
:104B4000BDEC048BBDE8F88F10EE100AA2A3D3E9E8
:104B500000232946FBF708FD02460B46204629465E
:104B600014461D469EA3D3E90023FBF7FDFC024635
:104B70000B4620462946FBF741FBBDEC048B41EC7C
:104B8000100BBDE8F88FB14B9F422E4612DCB7F1F7
:104B9000795F80F2638194A3D3E9002310EE100AB9
:104BA0002946FBF72BFBAA4B0022FCF7F9F900285A
:104BB00040F00C8145EC104B00F0C0FAA44953ECD6
:104BC000102B0020FBF718FBA24B0022FBF7CCFCBC
:104BD00087A3D3E9002304460D46FBF7C5FC86A353
:104BE000D3E90023FBF70AFB22462B46FBF7BCFC6C
:104BF00083A3D3E90023FBF7FFFA22462B46FBF7FA
:104C0000B3FC81A3D3E90023FBF7F8FA22462B4635
:104C1000FBF7AAFC7EA3D3E90023FBF7EDFA2246BB
:104C20002B46FBF7A1FC7CA3D3E90023FBF7E6FAB4
:104C300022462B46FBF798FC79A3D3E9002341ECED
:104C4000180B41EC190B20462946FBF78DFC76A387
:104C5000D3E90023FBF7D0FA22462B46FBF784FC6E
:104C600073A3D3E90023FBF7C9FA22462B46FBF7CF
:104C70007BFC71A3D3E90023FBF7BEFA22462B4647
:104C8000FBF772FC724B0022FBF7B8FA45EC104BB5
:104C90008046894600F086F96F4B9F425BEC10AB73
:104CA00073DC5B46002210EE100A43EC182B5946C9
:104CB00010EE102AFBF7A2FA42464B468046894680
:104CC00051EC190BFBF77AFD02460B46404649466C
:104CD000FBF74AFC53EC182B8046894651EC180B25
:104CE000FBF742FC02460B4620462946FBF784FAB6
:104CF00053EC182B04460D4650465946FBF77EFAF6
:104D000002460B4620462946FBF758FD02460B4655
:104D1000FBF774FA02460B4631A1D1E90001FBF71B
:104D20006BFA02460B4640464946FBF765FA53ECE0
:104D3000182B04460D4618EE100A1946FBF75EFACA
:104D400002460B463EA1D1E90001FBF755FA0246A7
:104D50000B4620462946FBF74FFA02460B4638A180
:104D6000D1E90001FBF748FA41EC100B002E3FF7A8
:104D7000E7AEBDEC048B10EE901A10EE102A01F194
:104D8000004343EC102BBDE8F88F42464B4651ECF4
:104D9000180BFBF713FD52465B46FBF7E5FB52464B
:104DA0005B46FBF72BFA02460B46FBF727FA0CA3F0
:104DB000D3E90023FBF720FA02460B4606A1D1E90E
:104DC0000001FBF719FA41EC100BCFE745EC104B53
:104DD000B6E600BFAFF30080182D4454FB21F93F25
:104DE000075C143326A6913C9C7500883CE4377E12
:104DF00009F7FD0DE13D023F88B20175E0EF493F43
:104E00003B8F68B52882A43F5544880E55C1C93FE1
:104E10007D6FEB0312D6D43F555555555555C53FBB
:104E200082922EB1C5B8B33F59018D1B6C06E63F87
:104E3000C88A599CE52A00404B2D8A1C273A03401A
:104E4000182D4454FB21E93FFFFFEF3FFFFFDF3FF9
:104E50000000F03F0000E03F3233EF3F10EE102A39
:104E600010EE100A2B462946FBF77EFB39A3D3E947
:104E7000002306460F46FBF777FB38A3D3E9002350
:104E8000FBF7BCF932463B46FBF76EFB35A3D3E993
:104E90000023FBF7B1F932463B46FBF765FB33A332
:104EA000D3E90023FBF7AAF932463B46FBF75CFB4C
:104EB00030A3D3E90023FBF79FF932463B46FBF7CB
:104EC00053FB2EA3D3E90023FBF798F932463B4668
:104ED000FBF74AFB2BA3D3E90023804689463046E3
:104EE0003946FBF741FB29A3D3E90023FBF784F9FB
:104EF00032463B46FBF738FB26A3D3E90023FBF7FA
:104F00007DF932463B46FBF72FFB24A3D3E9002370
:104F1000FBF772F932463B46FBF726FB0C4B0022AF
:104F2000FBF76CF902460B4640464946FBF746FC48
:104F300022462B46FBF718FB22462B46FBF75EF971
:104F4000BDEC048B41EC100BBDE8F88FAFF3008093
:104F50000000F03F09F7FD0DE13D023F88B2017509
:104F6000E0EF493F3B8F68B52882A43F5544880E47
:104F700055C1C93F7D6FEB0312D6D43F55555555EA
:104F80005555C53F82922EB1C5B8B33F59018D1B0F
:104F90006C06E63FC88A599CE52A00404B2D8A1CC6
:104FA000273A03402DE9F041634A55EC104BAA43E0
:104FB00000F09F80002D10EE10CA2B4654DD2915FD
:104FC00063D0C3F31303A1F2FF37C90743F480137F
:104FD00004D45B0003EBDC734FEA4C0C4FEADC7249
:104FE000002602EB43037F104FEA4C0C4FF0160EE5
:104FF00034464FF40012A118994202DC5B1A8C1857
:1050000016445B00BEF1010E03EBDC734FEA520263
:105010004FEA4C0CEFD1754620204FF000420AE0D9
:1050200044D04FEADC71013801EB43034FEA4C0CEA
:105030004FEA520243D0A34202EB0E01F0DD0029F9
:1050400001EB020E0ADBA0461B1B614588BF03F182
:10505000FF33ACEB010C15444446E2E7BEF1000F10
:10506000F1DB04F10108EFE725F00042224338D0DC
:10507000002D4ED129464FEADC22153913464FEA5E
:105080004C5C002AF7D0D60250D400205B00DD0231
:10509000044600F10100F9D51A4663460CFA00FCFB
:1050A000C0F12000C340091B13438AE76145B8D80B
:1050B000002901EB020ED1DB98460023C9E753EA31
:1050C0000C0310D168087110F30701F17F5101F54D
:1050D000001148BF40F0004001EB0753024643EC8B
:1050E000102BBDE8F0816A1C16BF681C0136400811
:1050F000E9E710EE102A10EE100A2B462946FBF7BE
:1051000033FA22462B46FBF779F841EC100BBDE849
:10511000F08110EE102A20462946FBF76DF8024672
:105120000B46FBF74BFB41EC100BDAE76346202004
:105130004FF0FF34B6E700BF0000F07F51EC100BDA
:1051400010EE102A21F0004343EC102B704700BFF3
:105150009FED010B704700BF000000000000F87FCA
:10516000F8B500BFF8BC08BC9E467047F8B500BF54
:08517000F8BC08BC9E46704724
:10517800000005800F800A001B801E0014001180AB
:10518800338036003C00398028002D80278022009B
:10519800638066006C00698078007D80778072008B
:1051A800500055805F805A004B804E00440041807B
:1051B800C380C600CC00C980D800DD80D780D2006B
:1051C800F000F580FF80FA00EB80EE00E400E1805B
:1051D800A000A580AF80AA00BB80BE00B400B1804B
:1051E800938096009C00998088008D80878082003B
:1051F800838186018C01898198019D819781920123
:10520800B001B581BF81BA01AB81AE01A401A18112
:10521800E001E581EF81EA01FB81FE01F401F18102
:10522800D381D601DC01D981C801CD81C781C201F2
:10523800400145814F814A015B815E0154015181E2
:10524800738176017C01798168016D8167816201D2
:10525800238126012C01298138013D8137813201C2
:10526800100115811F811A010B810E0104010181B2
:10527800038306030C03098318031D831783120392
:10528800300335833F833A032B832E032403218382
:10529800600365836F836A037B837E037403718372
:1052A800538356035C03598348034D834783420362
:1052B800C003C583CF83CA03DB83DE03D403D18352
:1052C800F383F603FC03F983E803ED83E783E20342
:1052D800A383A603AC03A983B803BD83B783B20332
:1052E800900395839F839A038B838E038403818322
:1052F800800285828F828A029B829E02940291821A
:10530800B382B602BC02B982A802AD82A782A20209
:10531800E382E602EC02E982F802FD82F782F202F9
:10532800D002D582DF82DA02CB82CE02C402C182E9
:10533800438246024C02498258025D8257825202D9
:10534800700275827F827A026B826E0264026182C9
:10535800200225822F822A023B823E0234023182B9
:10536800138216021C02198208020D8207820202A9
:1053780000061016000610160000000000000000CD
:1053880001020304060708090000000001020304E3
:085398001800002000000000D5
:0853A000FCB6FF7F01000000D4
:0853A80051490008D50100087D
:0453B000B10100083F
:1053B4000100000010000000010000000024F400BF
:1053C400180000200000000000000000040300207A
:1053D4006C030020D4030020000000000000000043
:1053E40000000000000000000000000000000000B9
:1053F40000000000000000000000000000000000A9
:105404000000000000000000000000000000000098
:105414000000000000000000000000000000000088
:105424000000000000000000000000000000000078
:105434000000000000000000000000000000000068
:105444000000000000000000000000000000000058
:105454000000000000000000000000000000000048
:105464000000000000000000000000000000000038
:1054740001000000000000000E33CDAB34126DE6D5
:10548400ECDE05000B00000000000000000000003E
:105494000000000000000000000000000000000008
:1054A40000000000000000000000000000000000F8
:1054B40000000000000000000000000000000000E8
:1054C40000000000000000000000000000000000D8
:0457F400F00F002092
:0400000508004805A2
:00000001FF
